{
	"data": {
		"bytecode": {
			"linkReferences": {},
			"object": "608060405234801561001057600080fd5b5061031d806100206000396000f3fe608060405234801561001057600080fd5b50600436106100365760003560e01c80638a4068dd1461003b578063a18a7bfc14610045575b600080fd5b610043610061565b005b61005f600480360381019061005a9190610159565b6100d6565b005b6127103373ffffffffffffffffffffffffffffffffffffffff163373ffffffffffffffffffffffffffffffffffffffff167fc7550178caa39c3d806841d75fa7ad0b497ed2d0b3b825903147decba80e792660018060018060016040516100cc9594939291906101be565b60405180910390a4565b3373ffffffffffffffffffffffffffffffffffffffff168173ffffffffffffffffffffffffffffffffffffffff167f2311833a6b34f4f41fdf892d645b68a6ccfeaec5f489c18070af217102585771600180600260405161013993929190610211565b60405180910390a350565b600081359050610153816102d0565b92915050565b60006020828403121561016b57600080fd5b600061017984828501610144565b91505092915050565b61018b8161025a565b82525050565b61019a8161029a565b82525050565b6101a9816102ac565b82525050565b6101b8816102be565b82525050565b600060a0820190506101d360008301886101a0565b6101e060208301876101a0565b6101ed60408301866101a0565b6101fa6060830185610191565b6102076080830184610182565b9695505050505050565b600060608201905061022660008301866101a0565b61023360208301856101a0565b61024060408301846101af565b949350505050565b600061025382610270565b9050919050565b60008115159050919050565b6000819050919050565b600073ffffffffffffffffffffffffffffffffffffffff82169050919050565b6000819050919050565b60006102a582610266565b9050919050565b60006102b782610290565b9050919050565b60006102c982610290565b9050919050565b6102d981610248565b81146102e457600080fd5b5056fea26469706673582212202e18428414d7513ddd489ad63417bf2b2fc42ab4f53a29e479584d1ab727c15f64736f6c63430008040033",
			"opcodes": "PUSH1 0x80 PUSH1 0x40 MSTORE CALLVALUE DUP1 ISZERO PUSH2 0x10 JUMPI PUSH1 0x0 DUP1 REVERT JUMPDEST POP PUSH2 0x31D DUP1 PUSH2 0x20 PUSH1 0x0 CODECOPY PUSH1 0x0 RETURN INVALID PUSH1 0x80 PUSH1 0x40 MSTORE CALLVALUE DUP1 ISZERO PUSH2 0x10 JUMPI PUSH1 0x0 DUP1 REVERT JUMPDEST POP PUSH1 0x4 CALLDATASIZE LT PUSH2 0x36 JUMPI PUSH1 0x0 CALLDATALOAD PUSH1 0xE0 SHR DUP1 PUSH4 0x8A4068DD EQ PUSH2 0x3B JUMPI DUP1 PUSH4 0xA18A7BFC EQ PUSH2 0x45 JUMPI JUMPDEST PUSH1 0x0 DUP1 REVERT JUMPDEST PUSH2 0x43 PUSH2 0x61 JUMP JUMPDEST STOP JUMPDEST PUSH2 0x5F PUSH1 0x4 DUP1 CALLDATASIZE SUB DUP2 ADD SWAP1 PUSH2 0x5A SWAP2 SWAP1 PUSH2 0x159 JUMP JUMPDEST PUSH2 0xD6 JUMP JUMPDEST STOP JUMPDEST PUSH2 0x2710 CALLER PUSH20 0xFFFFFFFFFFFFFFFFFFFFFFFFFFFFFFFFFFFFFFFF AND CALLER PUSH20 0xFFFFFFFFFFFFFFFFFFFFFFFFFFFFFFFFFFFFFFFF AND PUSH32 0xC7550178CAA39C3D806841D75FA7AD0B497ED2D0B3B825903147DECBA80E7926 PUSH1 0x1 DUP1 PUSH1 0x1 DUP1 PUSH1 0x1 PUSH1 0x40 MLOAD PUSH2 0xCC SWAP6 SWAP5 SWAP4 SWAP3 SWAP2 SWAP1 PUSH2 0x1BE JUMP JUMPDEST PUSH1 0x40 MLOAD DUP1 SWAP2 SUB SWAP1 LOG4 JUMP JUMPDEST CALLER PUSH20 0xFFFFFFFFFFFFFFFFFFFFFFFFFFFFFFFFFFFFFFFF AND DUP2 PUSH20 0xFFFFFFFFFFFFFFFFFFFFFFFFFFFFFFFFFFFFFFFF AND PUSH32 0x2311833A6B34F4F41FDF892D645B68A6CCFEAEC5F489C18070AF217102585771 PUSH1 0x1 DUP1 PUSH1 0x2 PUSH1 0x40 MLOAD PUSH2 0x139 SWAP4 SWAP3 SWAP2 SWAP1 PUSH2 0x211 JUMP JUMPDEST PUSH1 0x40 MLOAD DUP1 SWAP2 SUB SWAP1 LOG3 POP JUMP JUMPDEST PUSH1 0x0 DUP2 CALLDATALOAD SWAP1 POP PUSH2 0x153 DUP2 PUSH2 0x2D0 JUMP JUMPDEST SWAP3 SWAP2 POP POP JUMP JUMPDEST PUSH1 0x0 PUSH1 0x20 DUP3 DUP5 SUB SLT ISZERO PUSH2 0x16B JUMPI PUSH1 0x0 DUP1 REVERT JUMPDEST PUSH1 0x0 PUSH2 0x179 DUP5 DUP3 DUP6 ADD PUSH2 0x144 JUMP JUMPDEST SWAP2 POP POP SWAP3 SWAP2 POP POP JUMP JUMPDEST PUSH2 0x18B DUP2 PUSH2 0x25A JUMP JUMPDEST DUP3 MSTORE POP POP JUMP JUMPDEST PUSH2 0x19A DUP2 PUSH2 0x29A JUMP JUMPDEST DUP3 MSTORE POP POP JUMP JUMPDEST PUSH2 0x1A9 DUP2 PUSH2 0x2AC JUMP JUMPDEST DUP3 MSTORE POP POP JUMP JUMPDEST PUSH2 0x1B8 DUP2 PUSH2 0x2BE JUMP JUMPDEST DUP3 MSTORE POP POP JUMP JUMPDEST PUSH1 0x0 PUSH1 0xA0 DUP3 ADD SWAP1 POP PUSH2 0x1D3 PUSH1 0x0 DUP4 ADD DUP9 PUSH2 0x1A0 JUMP JUMPDEST PUSH2 0x1E0 PUSH1 0x20 DUP4 ADD DUP8 PUSH2 0x1A0 JUMP JUMPDEST PUSH2 0x1ED PUSH1 0x40 DUP4 ADD DUP7 PUSH2 0x1A0 JUMP JUMPDEST PUSH2 0x1FA PUSH1 0x60 DUP4 ADD DUP6 PUSH2 0x191 JUMP JUMPDEST PUSH2 0x207 PUSH1 0x80 DUP4 ADD DUP5 PUSH2 0x182 JUMP JUMPDEST SWAP7 SWAP6 POP POP POP POP POP POP JUMP JUMPDEST PUSH1 0x0 PUSH1 0x60 DUP3 ADD SWAP1 POP PUSH2 0x226 PUSH1 0x0 DUP4 ADD DUP7 PUSH2 0x1A0 JUMP JUMPDEST PUSH2 0x233 PUSH1 0x20 DUP4 ADD DUP6 PUSH2 0x1A0 JUMP JUMPDEST PUSH2 0x240 PUSH1 0x40 DUP4 ADD DUP5 PUSH2 0x1AF JUMP JUMPDEST SWAP5 SWAP4 POP POP POP POP JUMP JUMPDEST PUSH1 0x0 PUSH2 0x253 DUP3 PUSH2 0x270 JUMP JUMPDEST SWAP1 POP SWAP2 SWAP1 POP JUMP JUMPDEST PUSH1 0x0 DUP2 ISZERO ISZERO SWAP1 POP SWAP2 SWAP1 POP JUMP JUMPDEST PUSH1 0x0 DUP2 SWAP1 POP SWAP2 SWAP1 POP JUMP JUMPDEST PUSH1 0x0 PUSH20 0xFFFFFFFFFFFFFFFFFFFFFFFFFFFFFFFFFFFFFFFF DUP3 AND SWAP1 POP SWAP2 SWAP1 POP JUMP JUMPDEST PUSH1 0x0 DUP2 SWAP1 POP SWAP2 SWAP1 POP JUMP JUMPDEST PUSH1 0x0 PUSH2 0x2A5 DUP3 PUSH2 0x266 JUMP JUMPDEST SWAP1 POP SWAP2 SWAP1 POP JUMP JUMPDEST PUSH1 0x0 PUSH2 0x2B7 DUP3 PUSH2 0x290 JUMP JUMPDEST SWAP1 POP SWAP2 SWAP1 POP JUMP JUMPDEST PUSH1 0x0 PUSH2 0x2C9 DUP3 PUSH2 0x290 JUMP JUMPDEST SWAP1 POP SWAP2 SWAP1 POP JUMP JUMPDEST PUSH2 0x2D9 DUP2 PUSH2 0x248 JUMP JUMPDEST DUP2 EQ PUSH2 0x2E4 JUMPI PUSH1 0x0 DUP1 REVERT JUMPDEST POP JUMP INVALID LOG2 PUSH5 0x6970667358 0x22 SLT KECCAK256 0x2E XOR TIMESTAMP DUP5 EQ 0xD7 MLOAD RETURNDATASIZE 0xDD 0x48 SWAP11 0xD6 CALLVALUE OR 0xBF 0x2B 0x2F 0xC4 0x2A 0xB4 CREATE2 GASPRICE 0x29 0xE4 PUSH26 0x584D1AB727C15F64736F6C634300080400330000000000000000 "
		},
		"gasEstimates": {
			"creation": {
				"codeDepositCost": "159400",
				"executionCost": "202",
				"totalCost": "159602"
			},
			"external": {
				"setReferrer(address)": "infinite",
				"transfer()": "infinite"
			}
		},
		"methodIdentifiers": {
			"setReferrer(address)": "a18a7bfc",
			"transfer()": "8a4068dd"
		}
	},
	"abi": [
		{
			"anonymous": false,
			"inputs": [
				{
					"indexed": true,
					"internalType": "address",
					"name": "by",
					"type": "address"
				},
				{
					"indexed": true,
					"internalType": "address",
					"name": "to",
					"type": "address"
				},
				{
					"indexed": true,
					"internalType": "uint256",
					"name": "amount",
					"type": "uint256"
				},
				{
					"indexed": false,
					"internalType": "uint256",
					"name": "iterationDaily",
					"type": "uint256"
				},
				{
					"indexed": false,
					"internalType": "uint256",
					"name": "iterationWeekly",
					"type": "uint256"
				},
				{
					"indexed": false,
					"internalType": "uint256",
					"name": "iterationMonthly",
					"type": "uint256"
				},
				{
					"indexed": false,
					"internalType": "int256",
					"name": "treePosition",
					"type": "int256"
				},
				{
					"indexed": false,
					"internalType": "bool",
					"name": "converted",
					"type": "bool"
				}
			],
			"name": "ReferralRewards",
			"type": "event"
		},
		{
			"anonymous": false,
			"inputs": [
				{
					"indexed": true,
					"internalType": "address",
					"name": "by",
					"type": "address"
				},
				{
					"indexed": true,
					"internalType": "address",
					"name": "Referrer",
					"type": "address"
				},
				{
					"indexed": false,
					"internalType": "uint256",
					"name": "iterationDaily",
					"type": "uint256"
				},
				{
					"indexed": false,
					"internalType": "uint256",
					"name": "iterationWeekly",
					"type": "uint256"
				},
				{
					"indexed": false,
					"internalType": "uint256",
					"name": "iterationMonthly",
					"type": "uint256"
				}
			],
			"name": "ReferredBy",
			"type": "event"
		},
		{
			"inputs": [
				{
					"internalType": "address",
					"name": "_referrer",
					"type": "address"
				}
			],
			"name": "setReferrer",
			"outputs": [],
			"stateMutability": "nonpayable",
			"type": "function"
		},
		{
			"inputs": [],
			"name": "transfer",
			"outputs": [],
			"stateMutability": "nonpayable",
			"type": "function"
		}
	]
}